S01000007072696E746E756D2E7372656397
S11300000C94DC000C94F9000C94F9000C94F900A5
S11300100C94F9000C94F9000C94F9000C94F90078
S11300200C94F9000C94F9000C94F9000C94F90068
S11300300C94F9000C94F9000C94F9000C94F90058
S11300400C94F9000C94F9000C94F9000C94F90048
S11300500C94F9000C94F9000C94F9000C94F90038
S11300600C94F9000C94F9006E616E00696E6600E0
S113007000407A10F35A00A0724E18090010A5D45B
S1130080E80000E87648170000E40B54020000CAB8
S11300909A3B000000E1F5050000809698000000FE
S11300A040420F000000A08601000000102700005D
S11300B00000E803000000006400000000000A00E3
S11300C0000000000100000000002C76D888DC67E6
S11300D04F0823DFC1DFAE59E1B1B796E5E3E4533E
S11300E0C63AE651997696E8E6C28426EB898C9B5B
S11300F062ED407C6FFCEFBC9C9F40F2BAA56FA5FB
S1130100F490055A2AF75C936B6CF9676DC11BFC7C
S1130110E0E40D47FEF520E6B500D0ED902E030097
S1130120943577050080841E080000204E0A0000E4
S113013000C80C333333330F986E12831141EF8DA3
S11301402114893BE65516CFFEE6DB18D1844B38E3
S11301501BF77C1D901DA4BBE424203284725E2214
S11301608100C9F124ECA1E53D276364696E6F70D9
S1130170737578585B65666745464700616E006E27
S113018066696E69747900CDCCCC3D0AD7233C17DF
S1130190B7D13877CC2B329595E6241FB14F0A009E
S11301A00020410000C84200401C4620BCBE4CCA8E
S11301B01B0E5AAEC59D740011241FBECFEFD8E0AC
S11301C0DEBFCDBF11E0A0E0B1E0E6E5F8E102C09A
S11301D005900D92A837B107D9F721E0A8E7B1E05F
S11301E001C01D92AE37B207E1F70E94FB000C94E8
S11301F0290C0C9400000E944401D1E0DF93C2EF6B
S1130200CF938EE091E09F938F930E94990BDF939D
S1130210CF9388E291E09F938F930E94990BDAE346
S1130220DF93CCE9CF9382E491E09F938F930E9474
S1130230990BDF93CF938EE591E09F938F930E9468
S1130240990B8DB79EB740960FB6F8949EBF0FBE1C
S11302508DBFFFCF9091C00095FFFCCF8093C60067
S11302600895CF938091C0008823E4F7C091C6001D
S1130270CA3031F08C2F0E942A018C2F90E002C0EA
S11302808FEF9FEFCF910895E8E7F1E080E091E0F0
S113029093838283918380831092C50087E6809341
S11302A0C40088E18093C10086E08093C200089571
S11302B0A0E1B0E0EEE5F1E00C94E3087C011B0161
S11302C06A01FC0117821682838181FF44C39E0167
S11302D02F5F3F4F3901F7019381F10193FD859120
S11302E093FF81911F01882309F431C3853239F4C6
S11302F093FD859193FF81911F01853239F4B701F4
S113030090E00E945D0B56016501E5CF10E0512C91
S1130310912CFFE1F915D8F08B3279F038F4803262
S113032079F08332A1F4F92DF0612EC08D3261F0A1
S1130330803369F4292D21602DC0392D3260932E2C
S1130340892D8460982E2AC0E92DE86015C097FC99
S11303502DC020ED280F2A3088F496FE06C03AE01E
S1130360139F200D1124122F19C08AE0589E200DCE
S11303701124522EE92DE0629E2E10C08E3231F4EB
S113038096FCE5C2F92DF0649F2E08C08C3621F44A
S1130390292D2068922E02C0883641F4F10193FD84
S11303A0859193FF81911F018111B3CF9BEB980F2E
S11303B0933020F4992D9061805E07C09BE9980FDB
S11303C0933008F066C1992D9F7E96FF16E09F73C7
S11303D0992E853619F49064992E08C0863621F436
S11303E0392F3068932E02C01111115097FE07C0A7
S11303F01C3350F444244394410E27E00BC01830BE
S113040038F027E017E005C027E09CE3492E02C03E
S1130410212F412C560184E0A80EB11CF601608105
S1130420718182819381042DA3010E94150A6C01BC
S1130430F981FC87F0FF02C0F3FF06C091FC06C0FF
S113044092FE06C000E205C00DE203C00BE201C04B
S113045000E08C858C7019F001115AC29BC297FE82
S113046010C04C0CFC85F4FF04C08A81813309F46C
S11304704A94141474F528E0241578F588E0482E7D
S11304802CC096FC2AC0812F90E08C159D059CF011
S11304903CEFC3163FEFD30674F0892D8068982E85
S11304A00AC0E2E0F0E0EC0FFD1FE10FF11D8081D6
S11304B0803319F411501111F4CF97FE0EC0442467
S11304C04394410E812F90E0C816D9062CF41C19D0
S11304D004C04424439401C010E097FE06C01C14D9
S11304E01D0434F4C601019605C085E090E002C005
S11304F081E090E001110196112331F0212F30E0C9
S11305002F5F3F4F820F931F252D30E082179307F3
S113051014F4581A01C0512C892D897049F45520BE
S113052039F0B70180E290E00E945D0B5A94F7CF56
S1130530002329F0B701802F90E00E945D0B93FC0B
S113054009C0552039F0B70180E390E00E945D0BAB
S11305505A94F7CF97FE4CC04601D7FE02C0812CB7
S1130560912CC60188199909F301E80FF91FFE8738
S1130570ED87960124193109388B2F87012F10E05C
S11305801195019511093FEF8316930629F4B701DC
S11305908EE290E00E945D0BC814D9044CF08F8564
S11305A098898815990524F4ED85FE85818101C01B
S11305B080E3F1E08F1A91082D853E852F5F3F4F30
S11305C03E872D87801691062CF0B70190E00E949B
S11305D05D0BD9CFC814D90441F49A81963320F421
S11305E0953319F43C8534FF81E3B70190E04EC0A4
S11305F08A81813319F09C859F7E9C87B70190E0A6
S11306000E945D0B111105C094FC18C085E690E0B2
S113061017C0B7018EE290E00E945D0B1E5F82E07E
S113062001E0080FF301E80FF11D8081B70190E0AC
S11306300E945D0B802F0113F3CFE6CF85E490E099
S1130640B7010E945D0BD7FC06C0C114D10441F46C
S1130650EC85E4FF05C0D194C194D1088DE201C0BA
S11306608BE2B70190E00E945D0B80E32AE0C216A2
S1130670D1042CF08F5FFAE0CF1AD108F7CFB7017D
S113068090E00E945D0BB701C601C0960E945D0B0D
S113069054C1833631F0833779F0833509F056C07D
S11306A020C0560132E0A30EB11CF601808189837B
S11306B001E010E0630112C05601F2E0AF0EB11C7C
S11306C0F601C080D18096FE03C0612F70E002C0A5
S11306D06FEF7FEFC6010E94140B8C01F92DFF7799
S11306E014C0560122E0A20EB11CF601C080D180D4
S11306F096FE03C0612F70E002C06FEF7FEFC6016A
S11307000E94090B8C01F92DF0689F2EF3FD1AC08D
S1130710852D90E008171907A8F4B70180E290E04E
S11307200E945D0B5A94F4CFF60197FC859197FED5
S113073081916F01B70190E00E945D0B51105A94B2
S1130740015011090115110579F7F7C0843611F02C
S1130750893661F5560197FE09C024E0A20EB11C4A
S1130760F60160817181828193810AC0F2E0AF0E4B
S1130770B11CF60160817181072E000C880B990B66
S1130780F92DFF769F2E97FF09C09095809570955F
S113079061957F4F8F4F9F4FF0689F2E2AE030E086
S11307A0A3010E94C80BC82EC6183FC0092D853767
S11307B021F40F7E2AE030E01DC0097F8F3691F0CE
S11307C018F4883559F0C3C0803719F0883711F010
S11307D0BEC0006104FF09C0046007C094FE08C0E5
S11307E0066006C028E030E005C020E130E002C029
S11307F020E132E0560107FF09C084E0A80EB11CD5
S1130800F601608171818281938108C0F2E0AF0EAC
S1130810B11CF6016081718180E090E0A3010E9427
S1130820C80BC82EC6180F77902E96FE0BC0092D44
S11308300E7FC11650F494FE0AC092FC08C0092D24
S11308400E7E05C0DC2C092D03C0DC2C01C0D12E8A
S113085004FF0DC0FE01EC0DF11D8081803311F405
S1130860097E09C002FF06C0D394D39404C0802F2C
S1130870867809F0D39403FD11C000FF06C01C2D37
S1130880D51480F4150D1D190DC0D51458F4B701F5
S113089080E290E00E945D0BD394F7CFD51410F45E
S11308A05D1801C0512C04FF10C0B70180E390E033
S11308B00E945D0B02FF17C001FD03C088E790E0B2
S11308C002C088E590E0B7010CC0802F867859F00B
S11308D001FF02C08BE201C080E207FD8DE2B70197
S11308E090E00E945D0BC11638F4B70180E390E0FC
S11308F00E945D0B1150F7CFCA94F301EC0DF11D6A
S11309008081B70190E00E945D0BC110F5CF15C046
S1130910F4E0F51560F584E0581A93FE1FC0011148
S113092027C02C8523FF2AC008E610E0392D30713A
S1130930932EF8018491811124C0552009F4E4CC4C
S1130940B70180E290E00E945D0B5A94F6CFF70164
S11309508681978126C08FEF9FEF23C0B70180E285
S113096090E00E945D0B5A945110F8CFD8CF512CCF
S1130970B701802F90E00E945D0BD3CF0CE610E00E
S1130980D5CF91108052B70190E00E945D0B0F5FAC
S11309901F4FCFCF23E0251510F483E0BDCF512C9A
S11309A0C0CF6096E2E10C94FF0820FD09C0FC0171
S11309B023FD05C022FF02C07383628351834083F9
S11309C0089544FD17C046FD17C0AB01BC01DA0110
S11309D0FB01AA0FBB1FEE1FFF1F1094D1F74A0F94
S11309E05B1F6E1F7F1FCB01BA01660F771F881F25
S11309F0991F09C033E001C034E0660F771F881FD8
S1130A00991F3150D1F7620F711D811D911D0895F9
S1130A100F931F93CF93DF938C01C8010E941F0B88
S1130A20EC0197FD08C00E94ED0A892BB1F7B801CB
S1130A30CE010E94AF0BCE01DF91CF911F910F9198
S1130A400895A0E0B0E0E7E2F5E00C94E9087C0149
S1130A508B016A01D22F0E941F0B9C0133272B327A
S1130A60310521F02D32310559F4D06801501109B6
S1130A7011F480E06BC0C7010E941F0B97FDF9CFF2
S1130A80CD2FCD7F2D2F207319F5803309F5580113
S1130A9081E0A81AB10809F445C0C7010E941F0BE0
S1130AA097FD40C09C012F7D33272835310551F433
S1130AB0C26402501109B1F1C7010E941F0B97FFD4
S1130AC007C030C0D6FF02C0C26001C0C261850148
S1130AD0812C912C540120ED280F283080F0C4FF84
S1130AE004C0B7010E94AF0B1AC02A3040F0C6FF01
S1130AF0F8CF2F7D3FEE320F363098F727504C2F2A
S1130B00C501B4010E94E1044B015C01C2600150C3
S1130B10110959F0C7010E941F0B97FFDCCFC1FDDB
S1130B2004C0A7CF812C912C5401C7FF08C0B094F6
S1130B30A09490948094811C911CA11CB11C2C2F16
S1130B40B501A401C6010E94D50481E0CDB7DEB78A
S1130B50ECE00C940509A0E2B0E0E1EBF5E00C94C4
S1130B60E5085C014B017A018E010F5F1F4F68019C
S1130B7080E2F80111928A95E9F7F501538040E08B
S1130B8050E0612C90E0712CA1E0B0E0F90153FC3D
S1130B90859153FE81918F01482E9F01811103C0DD
S1130BA080E090E096C08E3519F44115510551F15D
S1130BB0672D70E0641775073CF48D3561F18D3253
S1130BC019F4992311F103C0992309F46DC0842DFC
S1130BD0869586958695F601E80FF11D842D87701C
S1130BE08D0102C0000F111F8A95E2F7C8019081A0
S1130BF0892B8083641459F0461410F44394E7CF8E
S1130C004A94E5CF7724739403C091E001C090E047
S1130C104F5F5F4FBBCF992319F08E8180628E8323
S1130C20711003C07724739419C0F6019E012F5DDF
S1130C303F4F8081809581932E173F07D1F7F2CFE4
S1130C40E114F10431F0F7018083B7016F5F7F4F46
S1130C507B0171E0871A9108712CF9F0C5010E949B
S1130C601F0B97FD18C0FC01FF2723E0F595E795BE
S1130C702A95E1F7EC0DFD1D208130E0AC014770B1
S1130C80552702C0359527954A95E2F720FDD8CF20
S1130C90B5010E94AF0B711083CFE114F10411F080
S1130CA0F7011082C80115C0682F66956695669590
S1130CB0F601E60FF11D682F67708D0102C0000F69
S1130CC0111F6A95E2F7B8017081672B6083682E63
S1130CD09FCFA096E0E10C9401092F923F924F928E
S1130CE05F926F927F929F92AF92BF92CF92DF9268
S1130CF0EF92FF920F931F93CF93DF936C018B01BD
S1130D001A010E941F0BEC0199278B32910529F0DF
S1130D108D9781F430E8932E01C0912C0150110974
S1130D2011F480E00CC1C6010E941F0BEC0197FF77
S1130D3002C0F7CF912CCE010E94F60A89369105A4
S1130D4031F08E36910599F5CCE7D1E002C0CFE7BA
S1130D50D1E02196FE013197B490BB20C9F0015037
S1130D60110991F0C6010E941F0B7C0197FD0CC074
S1130D700E94F60A9927EB2DF0E08E179F0749F39E
S1130D80B601C7010E94AF0BC258D14051F603C04F
S1130D90CF57D14029F080E090E0A0E8BFE704C03D
S1130DA080E090E0A0ECBFE7BC01CD01B8C0412CCD
S1130DB0512C3201E12CF12C2C2F20532A3010F528
S1130DC0E92DE260BE2E892D887092FE06C0811145
S1130DD020C0FFEFEF1AFF0A1CC0882319F081E03E
S1130DE0E81AF10840E2C301B2010E94E1042B01B8
S1130DF03C01683979498949994158F0F92DF660DF
S1130E00BF2E07C02E3F89F493FC0FC0292D286004
S1130E10B22E0150110941F0C6010E941F0BEC01D2
S1130E209B2C97FFC9CF01C09B2C91FE7ACFCE019A
S1130E308F7D99278534910509F042C0580181E0DE
S1130E40A81AB10809F46DCFC6010E941F0BEC016A
S1130E5097FD67CF99278B32910529F08D9769F417
S1130E60E92DE0619E2E5801F2E0AF1AB10809F4B1
S1130E7058CFC6010E941F0BEC01CE01C0970A9700
S1130E8008F04FCF8501A12CB12CB501BB0C880B08
S1130E90990B2C2F205340E20E94E1045B01015086
S1130EA0110939F0C6010E941F0BEC01C0970A9783
S1130EB060F394FE03C0B194A194B108EA0CFB1C46
S1130EC0012B31F0D7FD04C0B601CE010E94AF0B57
S1130ED0C301B2010E941A09F7FE06C0F194E1941D
S1130EE0F108CBE9D1E002C0C3EBD1E06E0128E107
S1130EF0C21AD10800E210E0E016F10650F0FE013B
S1130F0025913591459154910E945709E01AF10AAF
S1130F10F3CF249716950795CC16DD0669F797FE4F
S1130F2005C0DC01CB01B058BC01CD012114310452
S1130F3029F0F101608371838283938381E0DF91DF
S1130F40CF911F910F91FF90EF90DF90CF90BF90C2
S1130F50AF909F907F906F905F904F903F902F90B5
S1130F600895A0E0B0E0E7EBF7E00C94E7085C013B
S1130F70EB014A01FC0117821682612CF501038101
S1130F80FE0103FD859103FF8191182FEF01882352
S1130F9009F40FC190E00E94ED0A892B21F0C501EC
S1130FA00E940805EBCF153241F4FE0103FD1591B3
S1130FB003FF1191EF01153281F4C5010E941F0B4B
S1130FC097FDF5C0412F50E09C01332724173507C6
S1130FD0A9F2B5010E94AF0BECC01A3241F403FD33
S1130FE0159103FF1191EF017724739401C0712CC3
S1130FF0E12CF12C20ED210F2A3088F4F72DF2603A
S11310007F2EB70180E090E040E20E94E1047B0182
S1131010FE0103FD159103FF1191EF01EBCF71FE6A
S113102004C0E114F10421F4C4C0EE24EA94FE2CBB
S1131030183619F01C3661F014C0FE0103FD159139
S113104003FF1191EF01183661F4872D8860782E23
S1131050972D9460792EFE0103FD159103FF1191E4
S1131060EF01112309F4A5C0612F70E08AE691E035
S11310700E94FE0A892B09F49CC070FC07C0F4018D
S1131080C080D180C40102964C0102C0C12CD12C75
S11310901E3651F4F5014681578160E070E0272D3A
S11310A0C6010E94D5046ACF1336B9F471FC03C09B
S11310B0EE24E394F12CC5010E941F0B97FD77C029
S11310C0C114D10429F0F6018083C60101966C0194
S11310D091E0E91AF10879F766C01B3559F49E01CD
S11310E0A601B701C5010E94AB05EC01892B09F0EB
S11310F05AC054C0C5010E94080597FD58C01F3648
S1131100E1F140F41436A9F11936D1F1183509F09A
S11311103EC02BC01337A9F018F4103731F137C093
S1131120153739F1183709F132C0C114D10429F047
S1131130F6010083C60101966C0191E0E91AF108F9
S113114071F0C5010E941F0B8C0197FD08C00E941D
S1131150ED0A892B51F3B501C8010E94AF0BC114EC
S1131160D10409F1F60110821EC0F72DF0647F2E20
S113117007C0872D8062782E03C0972D9061792E49
S1131180272DA601B701C5010E94210505C0A601AE
S1131190B701C5010E946D06811105C0F501838167
S11311A0807329F406C070FCE9CE6394E7CE662010
S11311B019F0862D90E002C08FEF9FEFCDB7DEB718
S11311C0EEE00C9403092F923F924F925F926F923C
S11311D07F928F929F92AF92BF92CF92DF92EF92C3
S11311E0FF920F931F93CF93DF93CDB7DEB7CA1B44
S11311F0DB0B0FB6F894DEBF0FBECDBF09942A886F
S1131200398848885F846E847D848C849B84AA8416
S1131210B984C884DF80EE80FD800C811B81AA81A3
S1131220B981CE0FD11D0FB6F894DEBF0FBECDBF6E
S1131230ED010895E89409C097FB3EF490958095DC
S1131240709561957F4F8F4F9F4F9923A9F0F92F88
S113125096E9BB279395F695879577956795B79506
S1131260F111F8CFFAF4BB0F11F460FF1BC06F5FEC
S11312707F4F8F4F9F4F16C0882311F096E911C0FE
S1131280772321F09EE8872F762F05C0662371F01F
S113129096E8862F70E060E02AF09A95660F771F33
S11312A0881FDAF7880F9695879597F908950E9415
S11312B06A090C94DB090E94CD0938F00E94D40914
S11312C020F0952311F00C94C4090C94CA0911243C
S11312D00C940F0A0E94EC0970F3959FC1F3950FCB
S11312E050E0551F629FF001729FBB27F00DB11DA6
S11312F0639FAA27F00DB11DAA1F649F6627B00D36
S1131300A11D661F829F2227B00DA11D621F739F1E
S1131310B00DA11D621F839FA00D611D221F749F2C
S11313203327A00D611D231F849F600D211D822F73
S1131330762F6A2F11249F5750409AF0F1F088239A
S11313404AF0EE0FFF1FBB1F661F771F881F9150C7
S11313505040A9F79E3F510580F00C94C4090C94A9
S11313600F0A5F3FE4F3983ED4F38695779567952B
S1131370B795F795E7959F5FC1F7FE2B880F911DF1
S11313809695879597F9089597F99F6780E870E097
S113139060E008959FEF80EC089500240A941616E7
S11313A0170618060906089500240A94121613064F
S11313B0140605060895092E0394000C11F48823DD
S11313C052F0BB0F40F4BF2B11F460FF04C06F5FF9
S11313D07F4F8F4F9F4F089557FD9058440F551FCF
S11313E059F05F3F71F04795880F97FB991F61F0A3
S11313F09F3F79F087950895121613061406551F1A
S1131400F2CF4695F1DF08C0161617061806991F85
S1131410F1CF86957105610508940895E894BB277A
S113142066277727CB0197F90895283008F027E03D
S11314303327DA01990F311D87FD9160009661050C
S1131440710539F432602E5F3D9330E32A95E1F75C
S113145008959F3F30F080387105610509F03C5FC5
S11314603C5F3D93913008F08068911DDF93CF93EA
S11314701F930F93FF92EF92192F987F9695E92F60
S113148096959695E90FFF27E653FF4F9927332743
S1131490EE24FF24A701E70105900894079428F49B
S11314A0360FE71EF81E491F511D660F771F881F50
S11314B0991F0694A1F70590079428F4E70EF81EE7
S11314C0491F561FC11D770F881F991F661F069459
S11314D0A1F70590079428F4F80E491F561FC71F5B
S11314E0D11D880F991F661F771F0694A1F70590D9
S11314F0079420F4490F561FC71FD81F990F661F62
S1131500771F881F0694A9F784911095177041F0EE
S1131510D695C79557954795F794E7941A95C1F7CB
S1131520E0E7F0E0689415901591359165919591F7
S113153005907FE27395E118F10A430B560BC90B32
S1131540D009C0F7E10CF11E431F561FC91FD01D5F
S11315507EF4703311F48A95E6CFE894015030F0AC
S1131560080F0AF40027021708F4202F2395022FEE
S11315707A3328F079E37D932A95E9F710C07D93B7
S11315802A9589F606949795679537951795179434
S1131590E118F10A430B560BC90BD00998F02395B7
S11315A07E9173957A3308F070E37C932013B8F737
S11315B07E9170617D9330F0839571E37D9370E348
S11315C02A95E1F71124EF90FF900F911F91CF918D
S11315D0DF91992787FD9095089591110C94260C1D
S11315E0803219F089508550C8F7089591110895F3
S11315F081548A5108F4805E855A0895FC0105904F
S1131600061621F00020D9F7C00108953197CF01C3
S11316100895FC010590615070400110D8F7809541
S113162090958E0F9F1F0895FC01615070400190AA
S11316300110D8F7809590958E0F9F1F0895CF9332
S1131640DF93EC012B8120FF33C026FF0AC02F7BE0
S11316502B838E819F8101969F838E838A8190E064
S113166029C022FF0FC0E881F9818081082E000C77
S1131670990B009719F420622B831AC03196F983D1
S1131680E8830EC0EA85FB85099597FF09C02B8185
S1131690019611F080E201C080E1822B8B8308C0A7
S11316A02E813F812F5F3F4F3F832E83992702C0B6
S11316B08FEF9FEFDF91CF9108950F931F93CF93F7
S11316C0DF93FB01238121FD03C08FEF9FEF2CC02B
S11316D022FF16C046815781248135814217530762
S11316E044F4A081B1819D012F5F3F4F318320835A
S11316F08C93268137812F5F3F4F3783268314C015
S11317008B01EC01FB010084F185E02D0995892B07
S1131710E1F6D80116968D919C911797019617962C
S11317209C938E931697CE01DF91CF911F910F91C9
S11317300895A0E0B0E0EFE9FBE00C94F308AE01FB
S11317404B5F5F4FFA0161917191AF0180917A0112
S113175090917B010E945801E2E00C940F09FB0177
S1131760238120FF12C026FD10C08F3F3FEF930757
S113177061F082832F7D2064238326813781215069
S1131780310937832683992708958FEF9FEF0895B2
S1131790FA01AA27283051F1203181F1E8946F939E
S11317A06E7F6E5F7F4F8F4F9F4FAF4FB1E03ED044
S11317B0B4E03CD0670F781F891F9A1FA11D680FE2
S11317C0791F8A1F911DA11D6A0F711D811D911D15
S11317D0A11D20D009F468943F912AE0269F11248A
S11317E03019305D3193DEF6CF010895462F4770EE
S11317F0405D4193B3E00FD0C9F7F6CF462F4F7049
S1131800405D4A3318F0495D31FD4052419302D0A6
S1131810A9F7EACFB4E0A69597958795779567954C
S1131820BA95C9F700976105710508959B01AC014C
S11318300A2E06945795479537952795BA95C9F773
S1131840620F731F841F951FA01D08959927882771
S10918500895F894FFCF97
S113185600000003000000002A0131010000546862
S113186665206E756D626572206973202542206954
S11318766E204465630D0A00546865206E756D62BA
S1131886657220697320255820696E206865780D75
S11318960A000D0A546865206E756D6265722069CA
S11318A67320256420696E204465630D0A0054681C
S11318B665206E756D626572206973202542206904
S10B18C66E206865780D0A002C
S9030000FC
