S01200007377697463685F4C45442E737265634C
S11300000C9434000C943E000C943E000C943E007E
S11300100C943E000C943E000C943E000C943E0064
S11300200C943E000C943E000C943E000C943E0054
S11300300C943E000C943E000C943E000C943E0044
S11300400C943E000C943E000C943E000C943E0034
S11300500C943E000C943E000C943E000C943E0024
S11300600C943E000C943E0011241FBECFEFD8E048
S1130070DEBFCDBF0E9440000C9459000C940000D8
S113008087B1806287B988B1816088B930990DC021
S113009088B1806288B92FEF89EF90E021508040C9
S11300A09040E1F700C00000F1CF88B18F7D88B99E
S10900B0EDCFF894FFCF30
S9030000FC
